{
  "_format": "hh-sol-artifact-1",
  "contractName": "CodeStorage",
  "sourceName": "contracts/codestorage.sol",
  "abi": [
    {
      "anonymous": false,
      "inputs": [
        {
          "indexed": false,
          "internalType": "string",
          "name": "name",
          "type": "string"
        },
        {
          "indexed": false,
          "internalType": "string",
          "name": "code",
          "type": "string"
        },
        {
          "indexed": false,
          "internalType": "uint64",
          "name": "gas",
          "type": "uint64"
        },
        {
          "indexed": false,
          "internalType": "uint256",
          "name": "timestamp",
          "type": "uint256"
        }
      ],
      "name": "CodeUploaded",
      "type": "event"
    },
    {
      "anonymous": false,
      "inputs": [
        {
          "indexed": false,
          "internalType": "string",
          "name": "name",
          "type": "string"
        }
      ],
      "name": "pullcode",
      "type": "event"
    },
    {
      "inputs": [
        {
          "internalType": "string",
          "name": "name",
          "type": "string"
        },
        {
          "internalType": "bytes",
          "name": "input",
          "type": "bytes"
        }
      ],
      "name": "callFunc",
      "outputs": [
        {
          "internalType": "bytes",
          "name": "",
          "type": "bytes"
        }
      ],
      "stateMutability": "view",
      "type": "function"
    },
    {
      "inputs": [
        {
          "internalType": "string",
          "name": "name",
          "type": "string"
        }
      ],
      "name": "getCode",
      "outputs": [
        {
          "internalType": "string",
          "name": "",
          "type": "string"
        }
      ],
      "stateMutability": "view",
      "type": "function"
    },
    {
      "inputs": [
        {
          "internalType": "string",
          "name": "name",
          "type": "string"
        }
      ],
      "name": "getGas",
      "outputs": [
        {
          "internalType": "uint64",
          "name": "",
          "type": "uint64"
        }
      ],
      "stateMutability": "view",
      "type": "function"
    },
    {
      "inputs": [
        {
          "internalType": "string",
          "name": "name",
          "type": "string"
        }
      ],
      "name": "getInfo",
      "outputs": [
        {
          "internalType": "string",
          "name": "code",
          "type": "string"
        },
        {
          "internalType": "uint64",
          "name": "gas",
          "type": "uint64"
        },
        {
          "internalType": "string",
          "name": "itype",
          "type": "string"
        },
        {
          "internalType": "string",
          "name": "otype",
          "type": "string"
        }
      ],
      "stateMutability": "view",
      "type": "function"
    },
    {
      "inputs": [
        {
          "internalType": "string",
          "name": "name",
          "type": "string"
        }
      ],
      "name": "pullCode",
      "outputs": [],
      "stateMutability": "nonpayable",
      "type": "function"
    },
    {
      "inputs": [
        {
          "internalType": "string",
          "name": "name",
          "type": "string"
        },
        {
          "internalType": "uint64",
          "name": "_gas",
          "type": "uint64"
        }
      ],
      "name": "updataGas",
      "outputs": [],
      "stateMutability": "nonpayable",
      "type": "function"
    },
    {
      "inputs": [
        {
          "internalType": "string",
          "name": "name",
          "type": "string"
        },
        {
          "internalType": "string",
          "name": "code",
          "type": "string"
        },
        {
          "internalType": "uint64",
          "name": "gas",
          "type": "uint64"
        },
        {
          "internalType": "string",
          "name": "itype",
          "type": "string"
        },
        {
          "internalType": "string",
          "name": "otype",
          "type": "string"
        }
      ],
      "name": "uploadCode",
      "outputs": [],
      "stateMutability": "nonpayable",
      "type": "function"
    }
  ],
  "bytecode": "0x608060405234801561001057600080fd5b506113d3806100206000396000f3fe608060405234801561001057600080fd5b506004361061007d5760003560e01c80637ee005ab1161005b5780637ee005ab146100ea5780638d1cc9251461011d578063a928a0a51461014d578063b6361e2b1461017d5761007d565b806335385d3b14610082578063654aedac1461009e5780637aae9fd3146100ba575b600080fd5b61009c60048036038101906100979190610a0b565b610199565b005b6100b860048036038101906100b39190610af6565b610362565b005b6100d460048036038101906100cf9190610b52565b61046a565b6040516100e19190610baa565b60405180910390f35b61010460048036038101906100ff9190610b52565b6104a8565b6040516101149493929190610c44565b60405180910390f35b61013760048036038101906101329190610b52565b6106fb565b6040516101449190610c9e565b60405180910390f35b61016760048036038101906101629190610d61565b6107ae565b6040516101749190610e2e565b60405180910390f35b61019760048036038101906101929190610b52565b610837565b005b60008451116101dd576040517f08c379a00000000000000000000000000000000000000000000000000000000081526004016101d490610e9c565b60405180910390fd5b60008367ffffffffffffffff161161022a576040517f08c379a000000000000000000000000000000000000000000000000000000000815260040161022190610f08565b60405180910390fd5b60405180608001604052808581526020018467ffffffffffffffff168152602001838152602001828152506000866040516102659190610f64565b908152602001604051809103902060008201518160000190816102889190611191565b5060208201518160010160006101000a81548167ffffffffffffffff021916908367ffffffffffffffff16021790555060408201518160020190816102cd9190611191565b5060608201518160030190816102e39190611191565b509050507fcb99157b4948b0bfd4a2199f790d754e862823ae258a25adfa9c3f863dcb446d8585854260405161031c9493929190611272565b60405180910390a17f4f6c549854117e07a5568cf1a0065a0214f99bf28a89e0a839c88e7329de7fb0856040516103539190610c9e565b60405180910390a15050505050565b600080836040516103739190610f64565b9081526020016040518091039020600001805461038f90610faa565b9050116103d1576040517f08c379a00000000000000000000000000000000000000000000000000000000081526004016103c890611311565b60405180910390fd5b60008167ffffffffffffffff161161041e576040517f08c379a000000000000000000000000000000000000000000000000000000000815260040161041590610f08565b60405180910390fd5b8060008360405161042f9190610f64565b908152602001604051809103902060010160006101000a81548167ffffffffffffffff021916908367ffffffffffffffff1602179055505050565b6000808260405161047b9190610f64565b908152602001604051809103902060010160009054906101000a900467ffffffffffffffff169050919050565b606060006060806000856040516104bf9190610f64565b90815260200160405180910390206000016000866040516104e09190610f64565b908152602001604051809103902060010160009054906101000a900467ffffffffffffffff166000876040516105169190610f64565b90815260200160405180910390206002016000886040516105379190610f64565b908152602001604051809103902060030183805461055490610faa565b80601f016020809104026020016040519081016040528092919081815260200182805461058090610faa565b80156105cd5780601f106105a2576101008083540402835291602001916105cd565b820191906000526020600020905b8154815290600101906020018083116105b057829003601f168201915b505050505093508180546105e090610faa565b80601f016020809104026020016040519081016040528092919081815260200182805461060c90610faa565b80156106595780601f1061062e57610100808354040283529160200191610659565b820191906000526020600020905b81548152906001019060200180831161063c57829003601f168201915b5050505050915080805461066c90610faa565b80601f016020809104026020016040519081016040528092919081815260200182805461069890610faa565b80156106e55780601f106106ba576101008083540402835291602001916106e5565b820191906000526020600020905b8154815290600101906020018083116106c857829003601f168201915b5050505050905093509350935093509193509193565b606060008260405161070d9190610f64565b9081526020016040518091039020600001805461072990610faa565b80601f016020809104026020016040519081016040528092919081815260200182805461075590610faa565b80156107a25780601f10610777576101008083540402835291602001916107a2565b820191906000526020600020905b81548152906001019060200180831161078557829003601f168201915b50505050509050919050565b6060600080846040516107c19190610f64565b908152602001604051809103902060010160009054906101000a900467ffffffffffffffff1667ffffffffffffffff1611610831576040517f08c379a00000000000000000000000000000000000000000000000000000000081526004016108289061137d565b60405180910390fd5b92915050565b7f4f6c549854117e07a5568cf1a0065a0214f99bf28a89e0a839c88e7329de7fb0816040516108669190610c9e565b60405180910390a150565b6000604051905090565b600080fd5b600080fd5b600080fd5b600080fd5b6000601f19601f8301169050919050565b7f4e487b7100000000000000000000000000000000000000000000000000000000600052604160045260246000fd5b6108d88261088f565b810181811067ffffffffffffffff821117156108f7576108f66108a0565b5b80604052505050565b600061090a610871565b905061091682826108cf565b919050565b600067ffffffffffffffff821115610936576109356108a0565b5b61093f8261088f565b9050602081019050919050565b82818337600083830152505050565b600061096e6109698461091b565b610900565b90508281526020810184848401111561098a5761098961088a565b5b61099584828561094c565b509392505050565b600082601f8301126109b2576109b1610885565b5b81356109c284826020860161095b565b91505092915050565b600067ffffffffffffffff82169050919050565b6109e8816109cb565b81146109f357600080fd5b50565b600081359050610a05816109df565b92915050565b600080600080600060a08688031215610a2757610a2661087b565b5b600086013567ffffffffffffffff811115610a4557610a44610880565b5b610a518882890161099d565b955050602086013567ffffffffffffffff811115610a7257610a71610880565b5b610a7e8882890161099d565b9450506040610a8f888289016109f6565b935050606086013567ffffffffffffffff811115610ab057610aaf610880565b5b610abc8882890161099d565b925050608086013567ffffffffffffffff811115610add57610adc610880565b5b610ae98882890161099d565b9150509295509295909350565b60008060408385031215610b0d57610b0c61087b565b5b600083013567ffffffffffffffff811115610b2b57610b2a610880565b5b610b378582860161099d565b9250506020610b48858286016109f6565b9150509250929050565b600060208284031215610b6857610b6761087b565b5b600082013567ffffffffffffffff811115610b8657610b85610880565b5b610b928482850161099d565b91505092915050565b610ba4816109cb565b82525050565b6000602082019050610bbf6000830184610b9b565b92915050565b600081519050919050565b600082825260208201905092915050565b60005b83811015610bff578082015181840152602081019050610be4565b60008484015250505050565b6000610c1682610bc5565b610c208185610bd0565b9350610c30818560208601610be1565b610c398161088f565b840191505092915050565b60006080820190508181036000830152610c5e8187610c0b565b9050610c6d6020830186610b9b565b8181036040830152610c7f8185610c0b565b90508181036060830152610c938184610c0b565b905095945050505050565b60006020820190508181036000830152610cb88184610c0b565b905092915050565b600067ffffffffffffffff821115610cdb57610cda6108a0565b5b610ce48261088f565b9050602081019050919050565b6000610d04610cff84610cc0565b610900565b905082815260208101848484011115610d2057610d1f61088a565b5b610d2b84828561094c565b509392505050565b600082601f830112610d4857610d47610885565b5b8135610d58848260208601610cf1565b91505092915050565b60008060408385031215610d7857610d7761087b565b5b600083013567ffffffffffffffff811115610d9657610d95610880565b5b610da28582860161099d565b925050602083013567ffffffffffffffff811115610dc357610dc2610880565b5b610dcf85828601610d33565b9150509250929050565b600081519050919050565b600082825260208201905092915050565b6000610e0082610dd9565b610e0a8185610de4565b9350610e1a818560208601610be1565b610e238161088f565b840191505092915050565b60006020820190508181036000830152610e488184610df5565b905092915050565b7f436f64652063616e6e6f7420626520656d707479000000000000000000000000600082015250565b6000610e86601483610bd0565b9150610e9182610e50565b602082019050919050565b60006020820190508181036000830152610eb581610e79565b9050919050565b7f676173206973206c657373207468616e20300000000000000000000000000000600082015250565b6000610ef2601283610bd0565b9150610efd82610ebc565b602082019050919050565b60006020820190508181036000830152610f2181610ee5565b9050919050565b600081905092915050565b6000610f3e82610bc5565b610f488185610f28565b9350610f58818560208601610be1565b80840191505092915050565b6000610f708284610f33565b915081905092915050565b7f4e487b7100000000000000000000000000000000000000000000000000000000600052602260045260246000fd5b60006002820490506001821680610fc257607f821691505b602082108103610fd557610fd4610f7b565b5b50919050565b60008190508160005260206000209050919050565b60006020601f8301049050919050565b600082821b905092915050565b60006008830261103d7fffffffffffffffffffffffffffffffffffffffffffffffffffffffffffffffff82611000565b6110478683611000565b95508019841693508086168417925050509392505050565b6000819050919050565b6000819050919050565b600061108e6110896110848461105f565b611069565b61105f565b9050919050565b6000819050919050565b6110a883611073565b6110bc6110b482611095565b84845461100d565b825550505050565b600090565b6110d16110c4565b6110dc81848461109f565b505050565b5b81811015611100576110f56000826110c9565b6001810190506110e2565b5050565b601f8211156111455761111681610fdb565b61111f84610ff0565b8101602085101561112e578190505b61114261113a85610ff0565b8301826110e1565b50505b505050565b600082821c905092915050565b60006111686000198460080261114a565b1980831691505092915050565b60006111818383611157565b9150826002028217905092915050565b61119a82610bc5565b67ffffffffffffffff8111156111b3576111b26108a0565b5b6111bd8254610faa565b6111c8828285611104565b600060209050601f8311600181146111fb57600084156111e9578287015190505b6111f38582611175565b86555061125b565b601f19841661120986610fdb565b60005b828110156112315784890151825560018201915060208501945060208101905061120c565b8683101561124e578489015161124a601f891682611157565b8355505b6001600288020188555050505b505050505050565b61126c8161105f565b82525050565b6000608082019050818103600083015261128c8187610c0b565b905081810360208301526112a08186610c0b565b90506112af6040830185610b9b565b6112bc6060830184611263565b95945050505050565b7f436f646520697320656d70747900000000000000000000000000000000000000600082015250565b60006112fb600d83610bd0565b9150611306826112c5565b602082019050919050565b6000602082019050818103600083015261132a816112ee565b9050919050565b7f616c676f726974686d206e6f7420657869737400000000000000000000000000600082015250565b6000611367601383610bd0565b915061137282611331565b602082019050919050565b600060208201905081810360008301526113968161135a565b905091905056fea2646970667358221220e2ba2f1ea9ee04d7cbb550c782070de847b71e0ea3c3a9e478c0c455d1af362e64736f6c63430008120033",
  "linkReferences": {},
  "deployedLinkReferences": {}
}