{
  "_format": "hh-sol-artifact-1",
  "contractName": "CodeStorage",
  "sourceName": "contracts/codestorage.sol",
  "abi": [
    {
      "anonymous": false,
      "inputs": [
        {
          "indexed": false,
          "internalType": "string",
          "name": "name",
          "type": "string"
        },
        {
          "indexed": false,
          "internalType": "string",
          "name": "code",
          "type": "string"
        },
        {
          "indexed": false,
          "internalType": "uint256",
          "name": "gas",
          "type": "uint256"
        },
        {
          "indexed": false,
          "internalType": "uint256",
          "name": "timestamp",
          "type": "uint256"
        }
      ],
      "name": "CodeUploaded",
      "type": "event"
    },
    {
      "anonymous": false,
      "inputs": [
        {
          "indexed": false,
          "internalType": "string",
          "name": "name",
          "type": "string"
        }
      ],
      "name": "pullcode",
      "type": "event"
    },
    {
      "inputs": [
        {
          "internalType": "string",
          "name": "_name",
          "type": "string"
        }
      ],
      "name": "getCode",
      "outputs": [
        {
          "internalType": "string",
          "name": "",
          "type": "string"
        }
      ],
      "stateMutability": "view",
      "type": "function"
    },
    {
      "inputs": [
        {
          "internalType": "string",
          "name": "_name",
          "type": "string"
        }
      ],
      "name": "getGas",
      "outputs": [
        {
          "internalType": "uint256",
          "name": "",
          "type": "uint256"
        }
      ],
      "stateMutability": "view",
      "type": "function"
    },
    {
      "inputs": [
        {
          "internalType": "string",
          "name": "name",
          "type": "string"
        }
      ],
      "name": "pullCode",
      "outputs": [],
      "stateMutability": "nonpayable",
      "type": "function"
    },
    {
      "inputs": [
        {
          "internalType": "string",
          "name": "_name",
          "type": "string"
        },
        {
          "internalType": "uint256",
          "name": "_gas",
          "type": "uint256"
        }
      ],
      "name": "updataGas",
      "outputs": [],
      "stateMutability": "nonpayable",
      "type": "function"
    },
    {
      "inputs": [
        {
          "internalType": "string",
          "name": "_name",
          "type": "string"
        },
        {
          "internalType": "string",
          "name": "_code",
          "type": "string"
        },
        {
          "internalType": "uint256",
          "name": "gas",
          "type": "uint256"
        }
      ],
      "name": "uploadCode",
      "outputs": [],
      "stateMutability": "nonpayable",
      "type": "function"
    }
  ],
  "bytecode": "0x608060405234801561001057600080fd5b50610cab806100206000396000f3fe608060405234801561001057600080fd5b50600436106100575760003560e01c80634bd3315d1461005c57806367818451146100785780637aae9fd3146100945780638d1cc925146100c4578063b6361e2b146100f4575b600080fd5b610076600480360381019061007191906105b2565b610110565b005b610092600480360381019061008d919061060e565b6101ec565b005b6100ae60048036038101906100a99190610699565b61030b565b6040516100bb91906106f1565b60405180910390f35b6100de60048036038101906100d99190610699565b610335565b6040516100eb919061078b565b60405180910390f35b61010e60048036038101906101099190610699565b6103e8565b005b6000808360405161012191906107e9565b9081526020016040518091039020600001805461013d9061082f565b90501161017f576040517f08c379a0000000000000000000000000000000000000000000000000000000008152600401610176906108ac565b60405180910390fd5b600081116101c2576040517f08c379a00000000000000000000000000000000000000000000000000000000081526004016101b990610918565b60405180910390fd5b806000836040516101d391906107e9565b9081526020016040518091039020600101819055505050565b6000825111610230576040517f08c379a000000000000000000000000000000000000000000000000000000000815260040161022790610984565b60405180910390fd5b60008111610273576040517f08c379a000000000000000000000000000000000000000000000000000000000815260040161026a90610918565b60405180910390fd5b60405180604001604052808381526020018281525060008460405161029891906107e9565b908152602001604051809103902060008201518160000190816102bb9190610b50565b50602082015181600101559050507f4b7c4fd33c4793f10cf9282c5e06e4e39648c17e548b98e0293f53b433fa4203838383426040516102fe9493929190610c22565b60405180910390a1505050565b6000808260405161031c91906107e9565b9081526020016040518091039020600101549050919050565b606060008260405161034791906107e9565b908152602001604051809103902060000180546103639061082f565b80601f016020809104026020016040519081016040528092919081815260200182805461038f9061082f565b80156103dc5780601f106103b1576101008083540402835291602001916103dc565b820191906000526020600020905b8154815290600101906020018083116103bf57829003601f168201915b50505050509050919050565b7f4f6c549854117e07a5568cf1a0065a0214f99bf28a89e0a839c88e7329de7fb081604051610417919061078b565b60405180910390a150565b6000604051905090565b600080fd5b600080fd5b600080fd5b600080fd5b6000601f19601f8301169050919050565b7f4e487b7100000000000000000000000000000000000000000000000000000000600052604160045260246000fd5b61048982610440565b810181811067ffffffffffffffff821117156104a8576104a7610451565b5b80604052505050565b60006104bb610422565b90506104c78282610480565b919050565b600067ffffffffffffffff8211156104e7576104e6610451565b5b6104f082610440565b9050602081019050919050565b82818337600083830152505050565b600061051f61051a846104cc565b6104b1565b90508281526020810184848401111561053b5761053a61043b565b5b6105468482856104fd565b509392505050565b600082601f83011261056357610562610436565b5b813561057384826020860161050c565b91505092915050565b6000819050919050565b61058f8161057c565b811461059a57600080fd5b50565b6000813590506105ac81610586565b92915050565b600080604083850312156105c9576105c861042c565b5b600083013567ffffffffffffffff8111156105e7576105e6610431565b5b6105f38582860161054e565b92505060206106048582860161059d565b9150509250929050565b6000806000606084860312156106275761062661042c565b5b600084013567ffffffffffffffff81111561064557610644610431565b5b6106518682870161054e565b935050602084013567ffffffffffffffff81111561067257610671610431565b5b61067e8682870161054e565b925050604061068f8682870161059d565b9150509250925092565b6000602082840312156106af576106ae61042c565b5b600082013567ffffffffffffffff8111156106cd576106cc610431565b5b6106d98482850161054e565b91505092915050565b6106eb8161057c565b82525050565b600060208201905061070660008301846106e2565b92915050565b600081519050919050565b600082825260208201905092915050565b60005b8381101561074657808201518184015260208101905061072b565b60008484015250505050565b600061075d8261070c565b6107678185610717565b9350610777818560208601610728565b61078081610440565b840191505092915050565b600060208201905081810360008301526107a58184610752565b905092915050565b600081905092915050565b60006107c38261070c565b6107cd81856107ad565b93506107dd818560208601610728565b80840191505092915050565b60006107f582846107b8565b915081905092915050565b7f4e487b7100000000000000000000000000000000000000000000000000000000600052602260045260246000fd5b6000600282049050600182168061084757607f821691505b60208210810361085a57610859610800565b5b50919050565b7f436f646520697320656d70747900000000000000000000000000000000000000600082015250565b6000610896600d83610717565b91506108a182610860565b602082019050919050565b600060208201905081810360008301526108c581610889565b9050919050565b7f676173206973206c657373207468616e20300000000000000000000000000000600082015250565b6000610902601283610717565b915061090d826108cc565b602082019050919050565b60006020820190508181036000830152610931816108f5565b9050919050565b7f436f64652063616e6e6f7420626520656d707479000000000000000000000000600082015250565b600061096e601483610717565b915061097982610938565b602082019050919050565b6000602082019050818103600083015261099d81610961565b9050919050565b60008190508160005260206000209050919050565b60006020601f8301049050919050565b600082821b905092915050565b600060088302610a067fffffffffffffffffffffffffffffffffffffffffffffffffffffffffffffffff826109c9565b610a1086836109c9565b95508019841693508086168417925050509392505050565b6000819050919050565b6000610a4d610a48610a438461057c565b610a28565b61057c565b9050919050565b6000819050919050565b610a6783610a32565b610a7b610a7382610a54565b8484546109d6565b825550505050565b600090565b610a90610a83565b610a9b818484610a5e565b505050565b5b81811015610abf57610ab4600082610a88565b600181019050610aa1565b5050565b601f821115610b0457610ad5816109a4565b610ade846109b9565b81016020851015610aed578190505b610b01610af9856109b9565b830182610aa0565b50505b505050565b600082821c905092915050565b6000610b2760001984600802610b09565b1980831691505092915050565b6000610b408383610b16565b9150826002028217905092915050565b610b598261070c565b67ffffffffffffffff811115610b7257610b71610451565b5b610b7c825461082f565b610b87828285610ac3565b600060209050601f831160018114610bba5760008415610ba8578287015190505b610bb28582610b34565b865550610c1a565b601f198416610bc8866109a4565b60005b82811015610bf057848901518255600182019150602085019450602081019050610bcb565b86831015610c0d5784890151610c09601f891682610b16565b8355505b6001600288020188555050505b505050505050565b60006080820190508181036000830152610c3c8187610752565b90508181036020830152610c508186610752565b9050610c5f60408301856106e2565b610c6c60608301846106e2565b9594505050505056fea2646970667358221220bad8608de5eb3ce7ed0fe42dfe22fe7ccd8ad71950a3eb10de94b313fb910d9964736f6c63430008120033",
  "linkReferences": {},
  "deployedLinkReferences": {}
}