{
  "_format": "hh-sol-artifact-1",
  "contractName": "CodeStorage",
  "sourceName": "contracts/codestorage.sol",
  "abi": [
    {
      "anonymous": false,
      "inputs": [
        {
          "indexed": false,
          "internalType": "string",
          "name": "name",
          "type": "string"
        },
        {
          "indexed": false,
          "internalType": "string",
          "name": "code",
          "type": "string"
        },
        {
          "indexed": false,
          "internalType": "uint64",
          "name": "gas",
          "type": "uint64"
        },
        {
          "indexed": false,
          "internalType": "uint256",
          "name": "timestamp",
          "type": "uint256"
        }
      ],
      "name": "CodeUploaded",
      "type": "event"
    },
    {
      "anonymous": false,
      "inputs": [
        {
          "indexed": false,
          "internalType": "string",
          "name": "name",
          "type": "string"
        }
      ],
      "name": "pullcode",
      "type": "event"
    },
    {
      "inputs": [
        {
          "internalType": "string",
          "name": "name",
          "type": "string"
        },
        {
          "internalType": "bytes",
          "name": "input",
          "type": "bytes"
        }
      ],
      "name": "callFunc",
      "outputs": [
        {
          "internalType": "bytes",
          "name": "",
          "type": "bytes"
        }
      ],
      "stateMutability": "view",
      "type": "function"
    },
    {
      "inputs": [
        {
          "internalType": "string",
          "name": "name",
          "type": "string"
        }
      ],
      "name": "getCode",
      "outputs": [
        {
          "internalType": "string",
          "name": "",
          "type": "string"
        }
      ],
      "stateMutability": "view",
      "type": "function"
    },
    {
      "inputs": [
        {
          "internalType": "string",
          "name": "name",
          "type": "string"
        }
      ],
      "name": "getGas",
      "outputs": [
        {
          "internalType": "uint64",
          "name": "",
          "type": "uint64"
        }
      ],
      "stateMutability": "view",
      "type": "function"
    },
    {
      "inputs": [
        {
          "internalType": "string",
          "name": "name",
          "type": "string"
        }
      ],
      "name": "getInfo",
      "outputs": [
        {
          "internalType": "string",
          "name": "code",
          "type": "string"
        },
        {
          "internalType": "uint64",
          "name": "gas",
          "type": "uint64"
        },
        {
          "internalType": "string",
          "name": "itype",
          "type": "string"
        },
        {
          "internalType": "string",
          "name": "otype",
          "type": "string"
        }
      ],
      "stateMutability": "view",
      "type": "function"
    },
    {
      "inputs": [
        {
          "internalType": "string",
          "name": "name",
          "type": "string"
        }
      ],
      "name": "pullCode",
      "outputs": [],
      "stateMutability": "nonpayable",
      "type": "function"
    },
    {
      "inputs": [
        {
          "internalType": "string",
          "name": "name",
          "type": "string"
        },
        {
          "internalType": "uint64",
          "name": "_gas",
          "type": "uint64"
        }
      ],
      "name": "updataGas",
      "outputs": [],
      "stateMutability": "nonpayable",
      "type": "function"
    },
    {
      "inputs": [
        {
          "internalType": "string",
          "name": "name",
          "type": "string"
        },
        {
          "internalType": "string",
          "name": "code",
          "type": "string"
        },
        {
          "internalType": "uint64",
          "name": "gas",
          "type": "uint64"
        },
        {
          "internalType": "string",
          "name": "itype",
          "type": "string"
        },
        {
          "internalType": "string",
          "name": "otype",
          "type": "string"
        }
      ],
      "name": "uploadCode",
      "outputs": [],
      "stateMutability": "nonpayable",
      "type": "function"
    }
  ],
  "bytecode": "0x608060405234801561001057600080fd5b5061139c806100206000396000f3fe608060405234801561001057600080fd5b506004361061007d5760003560e01c80637ee005ab1161005b5780637ee005ab146100ea5780638d1cc9251461011d578063a928a0a51461014d578063b6361e2b1461017d5761007d565b806335385d3b14610082578063654aedac1461009e5780637aae9fd3146100ba575b600080fd5b61009c600480360381019061009791906109d4565b610199565b005b6100b860048036038101906100b39190610abf565b61032b565b005b6100d460048036038101906100cf9190610b1b565b610433565b6040516100e19190610b73565b60405180910390f35b61010460048036038101906100ff9190610b1b565b610471565b6040516101149493929190610c0d565b60405180910390f35b61013760048036038101906101329190610b1b565b6106c4565b6040516101449190610c67565b60405180910390f35b61016760048036038101906101629190610d2a565b610777565b6040516101749190610df7565b60405180910390f35b61019760048036038101906101929190610b1b565b610800565b005b60008451116101dd576040517f08c379a00000000000000000000000000000000000000000000000000000000081526004016101d490610e65565b60405180910390fd5b60008367ffffffffffffffff161161022a576040517f08c379a000000000000000000000000000000000000000000000000000000000815260040161022190610ed1565b60405180910390fd5b60405180608001604052808581526020018467ffffffffffffffff168152602001838152602001828152506000866040516102659190610f2d565b90815260200160405180910390206000820151816000019081610288919061115a565b5060208201518160010160006101000a81548167ffffffffffffffff021916908367ffffffffffffffff16021790555060408201518160020190816102cd919061115a565b5060608201518160030190816102e3919061115a565b509050507fcb99157b4948b0bfd4a2199f790d754e862823ae258a25adfa9c3f863dcb446d8585854260405161031c949392919061123b565b60405180910390a15050505050565b6000808360405161033c9190610f2d565b9081526020016040518091039020600001805461035890610f73565b90501161039a576040517f08c379a0000000000000000000000000000000000000000000000000000000008152600401610391906112da565b60405180910390fd5b60008167ffffffffffffffff16116103e7576040517f08c379a00000000000000000000000000000000000000000000000000000000081526004016103de90610ed1565b60405180910390fd5b806000836040516103f89190610f2d565b908152602001604051809103902060010160006101000a81548167ffffffffffffffff021916908367ffffffffffffffff1602179055505050565b600080826040516104449190610f2d565b908152602001604051809103902060010160009054906101000a900467ffffffffffffffff169050919050565b606060006060806000856040516104889190610f2d565b90815260200160405180910390206000016000866040516104a99190610f2d565b908152602001604051809103902060010160009054906101000a900467ffffffffffffffff166000876040516104df9190610f2d565b90815260200160405180910390206002016000886040516105009190610f2d565b908152602001604051809103902060030183805461051d90610f73565b80601f016020809104026020016040519081016040528092919081815260200182805461054990610f73565b80156105965780601f1061056b57610100808354040283529160200191610596565b820191906000526020600020905b81548152906001019060200180831161057957829003601f168201915b505050505093508180546105a990610f73565b80601f01602080910402602001604051908101604052809291908181526020018280546105d590610f73565b80156106225780601f106105f757610100808354040283529160200191610622565b820191906000526020600020905b81548152906001019060200180831161060557829003601f168201915b5050505050915080805461063590610f73565b80601f016020809104026020016040519081016040528092919081815260200182805461066190610f73565b80156106ae5780601f10610683576101008083540402835291602001916106ae565b820191906000526020600020905b81548152906001019060200180831161069157829003601f168201915b5050505050905093509350935093509193509193565b60606000826040516106d69190610f2d565b908152602001604051809103902060000180546106f290610f73565b80601f016020809104026020016040519081016040528092919081815260200182805461071e90610f73565b801561076b5780601f106107405761010080835404028352916020019161076b565b820191906000526020600020905b81548152906001019060200180831161074e57829003601f168201915b50505050509050919050565b60606000808460405161078a9190610f2d565b908152602001604051809103902060010160009054906101000a900467ffffffffffffffff1667ffffffffffffffff16116107fa576040517f08c379a00000000000000000000000000000000000000000000000000000000081526004016107f190611346565b60405180910390fd5b92915050565b7f4f6c549854117e07a5568cf1a0065a0214f99bf28a89e0a839c88e7329de7fb08160405161082f9190610c67565b60405180910390a150565b6000604051905090565b600080fd5b600080fd5b600080fd5b600080fd5b6000601f19601f8301169050919050565b7f4e487b7100000000000000000000000000000000000000000000000000000000600052604160045260246000fd5b6108a182610858565b810181811067ffffffffffffffff821117156108c0576108bf610869565b5b80604052505050565b60006108d361083a565b90506108df8282610898565b919050565b600067ffffffffffffffff8211156108ff576108fe610869565b5b61090882610858565b9050602081019050919050565b82818337600083830152505050565b6000610937610932846108e4565b6108c9565b90508281526020810184848401111561095357610952610853565b5b61095e848285610915565b509392505050565b600082601f83011261097b5761097a61084e565b5b813561098b848260208601610924565b91505092915050565b600067ffffffffffffffff82169050919050565b6109b181610994565b81146109bc57600080fd5b50565b6000813590506109ce816109a8565b92915050565b600080600080600060a086880312156109f0576109ef610844565b5b600086013567ffffffffffffffff811115610a0e57610a0d610849565b5b610a1a88828901610966565b955050602086013567ffffffffffffffff811115610a3b57610a3a610849565b5b610a4788828901610966565b9450506040610a58888289016109bf565b935050606086013567ffffffffffffffff811115610a7957610a78610849565b5b610a8588828901610966565b925050608086013567ffffffffffffffff811115610aa657610aa5610849565b5b610ab288828901610966565b9150509295509295909350565b60008060408385031215610ad657610ad5610844565b5b600083013567ffffffffffffffff811115610af457610af3610849565b5b610b0085828601610966565b9250506020610b11858286016109bf565b9150509250929050565b600060208284031215610b3157610b30610844565b5b600082013567ffffffffffffffff811115610b4f57610b4e610849565b5b610b5b84828501610966565b91505092915050565b610b6d81610994565b82525050565b6000602082019050610b886000830184610b64565b92915050565b600081519050919050565b600082825260208201905092915050565b60005b83811015610bc8578082015181840152602081019050610bad565b60008484015250505050565b6000610bdf82610b8e565b610be98185610b99565b9350610bf9818560208601610baa565b610c0281610858565b840191505092915050565b60006080820190508181036000830152610c278187610bd4565b9050610c366020830186610b64565b8181036040830152610c488185610bd4565b90508181036060830152610c5c8184610bd4565b905095945050505050565b60006020820190508181036000830152610c818184610bd4565b905092915050565b600067ffffffffffffffff821115610ca457610ca3610869565b5b610cad82610858565b9050602081019050919050565b6000610ccd610cc884610c89565b6108c9565b905082815260208101848484011115610ce957610ce8610853565b5b610cf4848285610915565b509392505050565b600082601f830112610d1157610d1061084e565b5b8135610d21848260208601610cba565b91505092915050565b60008060408385031215610d4157610d40610844565b5b600083013567ffffffffffffffff811115610d5f57610d5e610849565b5b610d6b85828601610966565b925050602083013567ffffffffffffffff811115610d8c57610d8b610849565b5b610d9885828601610cfc565b9150509250929050565b600081519050919050565b600082825260208201905092915050565b6000610dc982610da2565b610dd38185610dad565b9350610de3818560208601610baa565b610dec81610858565b840191505092915050565b60006020820190508181036000830152610e118184610dbe565b905092915050565b7f436f64652063616e6e6f7420626520656d707479000000000000000000000000600082015250565b6000610e4f601483610b99565b9150610e5a82610e19565b602082019050919050565b60006020820190508181036000830152610e7e81610e42565b9050919050565b7f676173206973206c657373207468616e20300000000000000000000000000000600082015250565b6000610ebb601283610b99565b9150610ec682610e85565b602082019050919050565b60006020820190508181036000830152610eea81610eae565b9050919050565b600081905092915050565b6000610f0782610b8e565b610f118185610ef1565b9350610f21818560208601610baa565b80840191505092915050565b6000610f398284610efc565b915081905092915050565b7f4e487b7100000000000000000000000000000000000000000000000000000000600052602260045260246000fd5b60006002820490506001821680610f8b57607f821691505b602082108103610f9e57610f9d610f44565b5b50919050565b60008190508160005260206000209050919050565b60006020601f8301049050919050565b600082821b905092915050565b6000600883026110067fffffffffffffffffffffffffffffffffffffffffffffffffffffffffffffffff82610fc9565b6110108683610fc9565b95508019841693508086168417925050509392505050565b6000819050919050565b6000819050919050565b600061105761105261104d84611028565b611032565b611028565b9050919050565b6000819050919050565b6110718361103c565b61108561107d8261105e565b848454610fd6565b825550505050565b600090565b61109a61108d565b6110a5818484611068565b505050565b5b818110156110c9576110be600082611092565b6001810190506110ab565b5050565b601f82111561110e576110df81610fa4565b6110e884610fb9565b810160208510156110f7578190505b61110b61110385610fb9565b8301826110aa565b50505b505050565b600082821c905092915050565b600061113160001984600802611113565b1980831691505092915050565b600061114a8383611120565b9150826002028217905092915050565b61116382610b8e565b67ffffffffffffffff81111561117c5761117b610869565b5b6111868254610f73565b6111918282856110cd565b600060209050601f8311600181146111c457600084156111b2578287015190505b6111bc858261113e565b865550611224565b601f1984166111d286610fa4565b60005b828110156111fa578489015182556001820191506020850194506020810190506111d5565b868310156112175784890151611213601f891682611120565b8355505b6001600288020188555050505b505050505050565b61123581611028565b82525050565b600060808201905081810360008301526112558187610bd4565b905081810360208301526112698186610bd4565b90506112786040830185610b64565b611285606083018461122c565b95945050505050565b7f436f646520697320656d70747900000000000000000000000000000000000000600082015250565b60006112c4600d83610b99565b91506112cf8261128e565b602082019050919050565b600060208201905081810360008301526112f3816112b7565b9050919050565b7f616c676f726974686d206e6f7420657869737400000000000000000000000000600082015250565b6000611330601383610b99565b915061133b826112fa565b602082019050919050565b6000602082019050818103600083015261135f81611323565b905091905056fea2646970667358221220e0fccf72c376e6408884a841fab9fd19d5dd35ddbd3057fe46961e1bcfe9e5e164736f6c63430008120033",
  "linkReferences": {},
  "deployedLinkReferences": {}
}