{
  "_format": "hh-sol-artifact-1",
  "contractName": "MutiVoucher",
  "sourceName": "contracts/mutivoucher.sol",
  "abi": [
    {
      "anonymous": false,
      "inputs": [
        {
          "indexed": false,
          "internalType": "string",
          "name": "name",
          "type": "string"
        },
        {
          "indexed": false,
          "internalType": "uint256",
          "name": "conversionRate",
          "type": "uint256"
        }
      ],
      "name": "VoucherCreated",
      "type": "event"
    },
    {
      "anonymous": false,
      "inputs": [
        {
          "indexed": false,
          "internalType": "address",
          "name": "buyer",
          "type": "address"
        },
        {
          "indexed": false,
          "internalType": "string",
          "name": "name",
          "type": "string"
        },
        {
          "indexed": false,
          "internalType": "uint256",
          "name": "amount",
          "type": "uint256"
        }
      ],
      "name": "VoucherPurchased",
      "type": "event"
    },
    {
      "anonymous": false,
      "inputs": [
        {
          "indexed": false,
          "internalType": "address",
          "name": "user",
          "type": "address"
        },
        {
          "indexed": false,
          "internalType": "string",
          "name": "name",
          "type": "string"
        },
        {
          "indexed": false,
          "internalType": "uint256",
          "name": "amount",
          "type": "uint256"
        }
      ],
      "name": "VoucherUsed",
      "type": "event"
    },
    {
      "inputs": [
        {
          "internalType": "string",
          "name": "name",
          "type": "string"
        },
        {
          "internalType": "address",
          "name": "user",
          "type": "address"
        }
      ],
      "name": "balanceOf",
      "outputs": [
        {
          "internalType": "uint256",
          "name": "",
          "type": "uint256"
        }
      ],
      "stateMutability": "view",
      "type": "function"
    },
    {
      "inputs": [
        {
          "internalType": "string",
          "name": "name",
          "type": "string"
        }
      ],
      "name": "buy",
      "outputs": [],
      "stateMutability": "payable",
      "type": "function"
    },
    {
      "inputs": [
        {
          "internalType": "string",
          "name": "name",
          "type": "string"
        },
        {
          "internalType": "uint256",
          "name": "conversionRate",
          "type": "uint256"
        }
      ],
      "name": "createVoucher",
      "outputs": [],
      "stateMutability": "nonpayable",
      "type": "function"
    },
    {
      "inputs": [],
      "name": "decimals",
      "outputs": [
        {
          "internalType": "uint256",
          "name": "",
          "type": "uint256"
        }
      ],
      "stateMutability": "view",
      "type": "function"
    },
    {
      "inputs": [
        {
          "internalType": "string",
          "name": "name",
          "type": "string"
        }
      ],
      "name": "getVoucherInfo",
      "outputs": [
        {
          "internalType": "uint256",
          "name": "conversionRate",
          "type": "uint256"
        }
      ],
      "stateMutability": "view",
      "type": "function"
    },
    {
      "inputs": [
        {
          "internalType": "string",
          "name": "name",
          "type": "string"
        },
        {
          "internalType": "uint256",
          "name": "amount",
          "type": "uint256"
        }
      ],
      "name": "use",
      "outputs": [],
      "stateMutability": "nonpayable",
      "type": "function"
    }
  ],
  "bytecode": "0x6080604052670de0b6b3a764000060005534801561001c57600080fd5b50610f9c8061002c6000396000f3fe6080604052600436106100555760003560e01c8063040318521461005a57806322cb8f1714610097578063313ce567146100c0578063492cc769146100eb5780634a4fbbc514610107578063718b23b914610144575b600080fd5b34801561006657600080fd5b50610081600480360381019061007c9190610909565b61016d565b60405161008e919061097e565b60405180910390f35b3480156100a357600080fd5b506100be60048036038101906100b991906109c5565b610239565b005b3480156100cc57600080fd5b506100d5610435565b6040516100e2919061097e565b60405180910390f35b61010560048036038101906101009190610a21565b61043b565b005b34801561011357600080fd5b5061012e60048036038101906101299190610a21565b6105d3565b60405161013b919061097e565b60405180910390f35b34801561015057600080fd5b5061016b600480360381019061016691906109c5565b610661565b005b6000806001846040516101809190610adb565b908152602001604051809103902060000154116101d2576040517f08c379a00000000000000000000000000000000000000000000000000000000081526004016101c990610b4f565b60405180910390fd5b6001836040516101e29190610adb565b908152602001604051809103902060010160008373ffffffffffffffffffffffffffffffffffffffff1673ffffffffffffffffffffffffffffffffffffffff16815260200190815260200160002054905092915050565b600060018360405161024b9190610adb565b9081526020016040518091039020600001541161029d576040517f08c379a000000000000000000000000000000000000000000000000000000000815260040161029490610b4f565b60405180910390fd5b600081116102e0576040517f08c379a00000000000000000000000000000000000000000000000000000000081526004016102d790610bbb565b60405180910390fd5b806001836040516102f19190610adb565b908152602001604051809103902060010160003373ffffffffffffffffffffffffffffffffffffffff1673ffffffffffffffffffffffffffffffffffffffff168152602001908152602001600020541015610381576040517f08c379a000000000000000000000000000000000000000000000000000000000815260040161037890610c27565b60405180910390fd5b806001836040516103929190610adb565b908152602001604051809103902060010160003373ffffffffffffffffffffffffffffffffffffffff1673ffffffffffffffffffffffffffffffffffffffff16815260200190815260200160002060008282546103ef9190610c76565b925050819055507feb53452b940569794505b5ccb4b48e08786a899aa1794a6796f7512c6fea334833838360405161042993929190610cf2565b60405180910390a15050565b60005481565b600060018260405161044d9190610adb565b9081526020016040518091039020600001541161049f576040517f08c379a000000000000000000000000000000000000000000000000000000000815260040161049690610b4f565b60405180910390fd5b600034116104e2576040517f08c379a00000000000000000000000000000000000000000000000000000000081526004016104d990610da2565b60405180910390fd5b600080546001836040516104f69190610adb565b908152602001604051809103902060000154346105139190610dc2565b61051d9190610dc2565b9050806001836040516105309190610adb565b908152602001604051809103902060010160003373ffffffffffffffffffffffffffffffffffffffff1673ffffffffffffffffffffffffffffffffffffffff168152602001908152602001600020600082825461058d9190610e04565b925050819055507f501a9ecf967fda2dcccfd685e4f8b58a3de512cfcd53743a50fd99f83494ca143383836040516105c793929190610cf2565b60405180910390a15050565b6000806001836040516105e69190610adb565b90815260200160405180910390206000015411610638576040517f08c379a000000000000000000000000000000000000000000000000000000000815260040161062f90610b4f565b60405180910390fd5b6001826040516106489190610adb565b9081526020016040518091039020600001549050919050565b600081116106a4576040517f08c379a000000000000000000000000000000000000000000000000000000000815260040161069b90610eaa565b60405180910390fd5b60008251116106e8576040517f08c379a00000000000000000000000000000000000000000000000000000000081526004016106df90610f16565b60405180910390fd5b60006001836040516106fa9190610adb565b908152602001604051809103902090508181600001819055507f0c324fed918846efdb09386809446408bb77a2edc57d96a95198bbc3e0be627c8383604051610744929190610f36565b60405180910390a1505050565b6000604051905090565b600080fd5b600080fd5b600080fd5b600080fd5b6000601f19601f8301169050919050565b7f4e487b7100000000000000000000000000000000000000000000000000000000600052604160045260246000fd5b6107b88261076f565b810181811067ffffffffffffffff821117156107d7576107d6610780565b5b80604052505050565b60006107ea610751565b90506107f682826107af565b919050565b600067ffffffffffffffff82111561081657610815610780565b5b61081f8261076f565b9050602081019050919050565b82818337600083830152505050565b600061084e610849846107fb565b6107e0565b90508281526020810184848401111561086a5761086961076a565b5b61087584828561082c565b509392505050565b600082601f83011261089257610891610765565b5b81356108a284826020860161083b565b91505092915050565b600073ffffffffffffffffffffffffffffffffffffffff82169050919050565b60006108d6826108ab565b9050919050565b6108e6816108cb565b81146108f157600080fd5b50565b600081359050610903816108dd565b92915050565b600080604083850312156109205761091f61075b565b5b600083013567ffffffffffffffff81111561093e5761093d610760565b5b61094a8582860161087d565b925050602061095b858286016108f4565b9150509250929050565b6000819050919050565b61097881610965565b82525050565b6000602082019050610993600083018461096f565b92915050565b6109a281610965565b81146109ad57600080fd5b50565b6000813590506109bf81610999565b92915050565b600080604083850312156109dc576109db61075b565b5b600083013567ffffffffffffffff8111156109fa576109f9610760565b5b610a068582860161087d565b9250506020610a17858286016109b0565b9150509250929050565b600060208284031215610a3757610a3661075b565b5b600082013567ffffffffffffffff811115610a5557610a54610760565b5b610a618482850161087d565b91505092915050565b600081519050919050565b600081905092915050565b60005b83811015610a9e578082015181840152602081019050610a83565b60008484015250505050565b6000610ab582610a6a565b610abf8185610a75565b9350610acf818560208601610a80565b80840191505092915050565b6000610ae78284610aaa565b915081905092915050565b600082825260208201905092915050565b7f566f756368657220646f65736e27742065786973740000000000000000000000600082015250565b6000610b39601583610af2565b9150610b4482610b03565b602082019050919050565b60006020820190508181036000830152610b6881610b2c565b9050919050565b7f416d6f756e74206d7573742062652067726561746572207468616e207a65726f600082015250565b6000610ba5602083610af2565b9150610bb082610b6f565b602082019050919050565b60006020820190508181036000830152610bd481610b98565b9050919050565b7f496e73756666696369656e742062616c616e6365000000000000000000000000600082015250565b6000610c11601483610af2565b9150610c1c82610bdb565b602082019050919050565b60006020820190508181036000830152610c4081610c04565b9050919050565b7f4e487b7100000000000000000000000000000000000000000000000000000000600052601160045260246000fd5b6000610c8182610965565b9150610c8c83610965565b9250828203905081811115610ca457610ca3610c47565b5b92915050565b610cb3816108cb565b82525050565b6000610cc482610a6a565b610cce8185610af2565b9350610cde818560208601610a80565b610ce78161076f565b840191505092915050565b6000606082019050610d076000830186610caa565b8181036020830152610d198185610cb9565b9050610d28604083018461096f565b949350505050565b7f4d6573736167652076616c7565206d757374206265206772656174657220746860008201527f616e207a65726f00000000000000000000000000000000000000000000000000602082015250565b6000610d8c602783610af2565b9150610d9782610d30565b604082019050919050565b60006020820190508181036000830152610dbb81610d7f565b9050919050565b6000610dcd82610965565b9150610dd883610965565b9250828202610de681610965565b91508282048414831517610dfd57610dfc610c47565b5b5092915050565b6000610e0f82610965565b9150610e1a83610965565b9250828201905080821115610e3257610e31610c47565b5b92915050565b7f436f6e76657273696f6e2072617465206d75737420626520677265617465722060008201527f7468616e207a65726f0000000000000000000000000000000000000000000000602082015250565b6000610e94602983610af2565b9150610e9f82610e38565b604082019050919050565b60006020820190508181036000830152610ec381610e87565b9050919050565b7f566f7563686572206e616d652063616e6e6f7420626520656d70747900000000600082015250565b6000610f00601c83610af2565b9150610f0b82610eca565b602082019050919050565b60006020820190508181036000830152610f2f81610ef3565b9050919050565b60006040820190508181036000830152610f508185610cb9565b9050610f5f602083018461096f565b939250505056fea26469706673582212207aa46ece8df3d39ae187db7a71bb803128bdf0c0de22e673e231ad037f6c64f264736f6c63430008120033",
  "linkReferences": {},
  "deployedLinkReferences": {}
}