{
  "_format": "hh-sol-artifact-1",
  "contractName": "MultiVoucher",
  "sourceName": "contracts/mutitoken.sol",
  "abi": [
    {
      "anonymous": false,
      "inputs": [
        {
          "indexed": true,
          "internalType": "address",
          "name": "previousOwner",
          "type": "address"
        },
        {
          "indexed": true,
          "internalType": "address",
          "name": "newOwner",
          "type": "address"
        }
      ],
      "name": "OwnershipTransferred",
      "type": "event"
    },
    {
      "anonymous": false,
      "inputs": [
        {
          "indexed": false,
          "internalType": "string",
          "name": "voucherName",
          "type": "string"
        },
        {
          "indexed": false,
          "internalType": "uint256",
          "name": "conversionRate",
          "type": "uint256"
        }
      ],
      "name": "VoucherCreated",
      "type": "event"
    },
    {
      "anonymous": false,
      "inputs": [
        {
          "indexed": false,
          "internalType": "address",
          "name": "buyer",
          "type": "address"
        },
        {
          "indexed": false,
          "internalType": "string",
          "name": "voucherName",
          "type": "string"
        },
        {
          "indexed": false,
          "internalType": "uint256",
          "name": "amount",
          "type": "uint256"
        }
      ],
      "name": "VoucherPurchased",
      "type": "event"
    },
    {
      "anonymous": false,
      "inputs": [
        {
          "indexed": false,
          "internalType": "address",
          "name": "user",
          "type": "address"
        },
        {
          "indexed": false,
          "internalType": "string",
          "name": "voucherName",
          "type": "string"
        },
        {
          "indexed": false,
          "internalType": "uint256",
          "name": "amount",
          "type": "uint256"
        }
      ],
      "name": "VoucherUsed",
      "type": "event"
    },
    {
      "inputs": [
        {
          "internalType": "string",
          "name": "name",
          "type": "string"
        },
        {
          "internalType": "address",
          "name": "user",
          "type": "address"
        }
      ],
      "name": "balanceOf",
      "outputs": [
        {
          "internalType": "uint256",
          "name": "",
          "type": "uint256"
        }
      ],
      "stateMutability": "view",
      "type": "function"
    },
    {
      "inputs": [
        {
          "internalType": "string",
          "name": "name",
          "type": "string"
        },
        {
          "internalType": "uint256",
          "name": "amount",
          "type": "uint256"
        }
      ],
      "name": "buy",
      "outputs": [],
      "payable": true,
      "stateMutability": "payable",
      "type": "function"
    },
    {
      "inputs": [
        {
          "internalType": "string",
          "name": "name",
          "type": "string"
        },
        {
          "internalType": "uint256",
          "name": "conversionRate",
          "type": "uint256"
        }
      ],
      "name": "createVoucher",
      "outputs": [],
      "stateMutability": "nonpayable",
      "type": "function"
    },
    {
      "inputs": [
        {
          "internalType": "string",
          "name": "name",
          "type": "string"
        }
      ],
      "name": "getVoucherInfo",
      "outputs": [
        {
          "internalType": "uint256",
          "name": "conversionRate",
          "type": "uint256"
        }
      ],
      "stateMutability": "view",
      "type": "function"
    },
    {
      "inputs": [],
      "name": "owner",
      "outputs": [
        {
          "internalType": "address",
          "name": "",
          "type": "address"
        }
      ],
      "stateMutability": "view",
      "type": "function"
    },
    {
      "inputs": [],
      "name": "renounceOwnership",
      "outputs": [],
      "stateMutability": "nonpayable",
      "type": "function"
    },
    {
      "inputs": [
        {
          "internalType": "address",
          "name": "newOwner",
          "type": "address"
        }
      ],
      "name": "transferOwnership",
      "outputs": [],
      "stateMutability": "nonpayable",
      "type": "function"
    },
    {
      "inputs": [
        {
          "internalType": "string",
          "name": "name",
          "type": "string"
        },
        {
          "internalType": "uint256",
          "name": "GasAmount",
          "type": "uint256"
        }
      ],
      "name": "use",
      "outputs": [],
      "stateMutability": "nonpayable",
      "type": "function"
    }
  ],
  "bytecode": "0x608060405234801561001057600080fd5b5061002d61002261003260201b60201c565b61003a60201b60201c565b6100fe565b600033905090565b60008060009054906101000a900473ffffffffffffffffffffffffffffffffffffffff169050816000806101000a81548173ffffffffffffffffffffffffffffffffffffffff021916908373ffffffffffffffffffffffffffffffffffffffff1602179055508173ffffffffffffffffffffffffffffffffffffffff168173ffffffffffffffffffffffffffffffffffffffff167f8be0079c531659141344cd1fd0a4f28419497f9722a3daafe3b4186f6b6457e060405160405180910390a35050565b6113a28061010d6000396000f3fe60806040526004361061007b5760003560e01c8063715018a61161004e578063715018a61461013f578063718b23b9146101565780638da5cb5b1461017f578063f2fde38b146101aa5761007b565b806304031852146100805780630ca5c504146100bd57806322cb8f17146100d95780634a4fbbc514610102575b600080fd5b34801561008c57600080fd5b506100a760048036038101906100a29190610bac565b6101d3565b6040516100b49190610c21565b60405180910390f35b6100d760048036038101906100d29190610c68565b61029f565b005b3480156100e557600080fd5b5061010060048036038101906100fb9190610c68565b610468565b005b34801561010e57600080fd5b5061012960048036038101906101249190610cc4565b610664565b6040516101369190610c21565b60405180910390f35b34801561014b57600080fd5b506101546106f2565b005b34801561016257600080fd5b5061017d60048036038101906101789190610c68565b610706565b005b34801561018b57600080fd5b506101946107fe565b6040516101a19190610d1c565b60405180910390f35b3480156101b657600080fd5b506101d160048036038101906101cc9190610d37565b610827565b005b6000806001846040516101e69190610dde565b90815260200160405180910390206000015411610238576040517f08c379a000000000000000000000000000000000000000000000000000000000815260040161022f90610e52565b60405180910390fd5b6001836040516102489190610dde565b908152602001604051809103902060010160008373ffffffffffffffffffffffffffffffffffffffff1673ffffffffffffffffffffffffffffffffffffffff16815260200190815260200160002054905092915050565b60006001836040516102b19190610dde565b90815260200160405180910390206000015411610303576040517f08c379a00000000000000000000000000000000000000000000000000000000081526004016102fa90610e52565b60405180910390fd5b60008111610346576040517f08c379a000000000000000000000000000000000000000000000000000000000815260040161033d90610ebe565b60405180910390fd5b806001836040516103579190610dde565b908152602001604051809103902060000154346103749190610f0d565b146103b4576040517f08c379a00000000000000000000000000000000000000000000000000000000081526004016103ab90610fb3565b60405180910390fd5b806001836040516103c59190610dde565b908152602001604051809103902060010160003373ffffffffffffffffffffffffffffffffffffffff1673ffffffffffffffffffffffffffffffffffffffff16815260200190815260200160002060008282546104229190610fd3565b925050819055507f501a9ecf967fda2dcccfd685e4f8b58a3de512cfcd53743a50fd99f83494ca1433838360405161045c93929190611062565b60405180910390a15050565b600060018360405161047a9190610dde565b908152602001604051809103902060000154116104cc576040517f08c379a00000000000000000000000000000000000000000000000000000000081526004016104c390610e52565b60405180910390fd5b6000811161050f576040517f08c379a000000000000000000000000000000000000000000000000000000000815260040161050690610ebe565b60405180910390fd5b806001836040516105209190610dde565b908152602001604051809103902060010160003373ffffffffffffffffffffffffffffffffffffffff1673ffffffffffffffffffffffffffffffffffffffff1681526020019081526020016000205410156105b0576040517f08c379a00000000000000000000000000000000000000000000000000000000081526004016105a7906110ec565b60405180910390fd5b806001836040516105c19190610dde565b908152602001604051809103902060010160003373ffffffffffffffffffffffffffffffffffffffff1673ffffffffffffffffffffffffffffffffffffffff168152602001908152602001600020600082825461061e919061110c565b925050819055507feb53452b940569794505b5ccb4b48e08786a899aa1794a6796f7512c6fea334833838360405161065893929190611062565b60405180910390a15050565b6000806001836040516106779190610dde565b908152602001604051809103902060000154116106c9576040517f08c379a00000000000000000000000000000000000000000000000000000000081526004016106c090610e52565b60405180910390fd5b6001826040516106d99190610dde565b9081526020016040518091039020600001549050919050565b6106fa6108aa565b6107046000610928565b565b61070e6108aa565b60008111610751576040517f08c379a0000000000000000000000000000000000000000000000000000000008152600401610748906111b2565b60405180910390fd5b6000825111610795576040517f08c379a000000000000000000000000000000000000000000000000000000000815260040161078c9061121e565b60405180910390fd5b60006001836040516107a79190610dde565b908152602001604051809103902090508181600001819055507f0c324fed918846efdb09386809446408bb77a2edc57d96a95198bbc3e0be627c83836040516107f192919061123e565b60405180910390a1505050565b60008060009054906101000a900473ffffffffffffffffffffffffffffffffffffffff16905090565b61082f6108aa565b600073ffffffffffffffffffffffffffffffffffffffff168173ffffffffffffffffffffffffffffffffffffffff160361089e576040517f08c379a0000000000000000000000000000000000000000000000000000000008152600401610895906112e0565b60405180910390fd5b6108a781610928565b50565b6108b26109ec565b73ffffffffffffffffffffffffffffffffffffffff166108d06107fe565b73ffffffffffffffffffffffffffffffffffffffff1614610926576040517f08c379a000000000000000000000000000000000000000000000000000000000815260040161091d9061134c565b60405180910390fd5b565b60008060009054906101000a900473ffffffffffffffffffffffffffffffffffffffff169050816000806101000a81548173ffffffffffffffffffffffffffffffffffffffff021916908373ffffffffffffffffffffffffffffffffffffffff1602179055508173ffffffffffffffffffffffffffffffffffffffff168173ffffffffffffffffffffffffffffffffffffffff167f8be0079c531659141344cd1fd0a4f28419497f9722a3daafe3b4186f6b6457e060405160405180910390a35050565b600033905090565b6000604051905090565b600080fd5b600080fd5b600080fd5b600080fd5b6000601f19601f8301169050919050565b7f4e487b7100000000000000000000000000000000000000000000000000000000600052604160045260246000fd5b610a5b82610a12565b810181811067ffffffffffffffff82111715610a7a57610a79610a23565b5b80604052505050565b6000610a8d6109f4565b9050610a998282610a52565b919050565b600067ffffffffffffffff821115610ab957610ab8610a23565b5b610ac282610a12565b9050602081019050919050565b82818337600083830152505050565b6000610af1610aec84610a9e565b610a83565b905082815260208101848484011115610b0d57610b0c610a0d565b5b610b18848285610acf565b509392505050565b600082601f830112610b3557610b34610a08565b5b8135610b45848260208601610ade565b91505092915050565b600073ffffffffffffffffffffffffffffffffffffffff82169050919050565b6000610b7982610b4e565b9050919050565b610b8981610b6e565b8114610b9457600080fd5b50565b600081359050610ba681610b80565b92915050565b60008060408385031215610bc357610bc26109fe565b5b600083013567ffffffffffffffff811115610be157610be0610a03565b5b610bed85828601610b20565b9250506020610bfe85828601610b97565b9150509250929050565b6000819050919050565b610c1b81610c08565b82525050565b6000602082019050610c366000830184610c12565b92915050565b610c4581610c08565b8114610c5057600080fd5b50565b600081359050610c6281610c3c565b92915050565b60008060408385031215610c7f57610c7e6109fe565b5b600083013567ffffffffffffffff811115610c9d57610c9c610a03565b5b610ca985828601610b20565b9250506020610cba85828601610c53565b9150509250929050565b600060208284031215610cda57610cd96109fe565b5b600082013567ffffffffffffffff811115610cf857610cf7610a03565b5b610d0484828501610b20565b91505092915050565b610d1681610b6e565b82525050565b6000602082019050610d316000830184610d0d565b92915050565b600060208284031215610d4d57610d4c6109fe565b5b6000610d5b84828501610b97565b91505092915050565b600081519050919050565b600081905092915050565b60005b83811015610d98578082015181840152602081019050610d7d565b83811115610da7576000848401525b50505050565b6000610db882610d64565b610dc28185610d6f565b9350610dd2818560208601610d7a565b80840191505092915050565b6000610dea8284610dad565b915081905092915050565b600082825260208201905092915050565b7f566f756368657220646f65736e27742065786973740000000000000000000000600082015250565b6000610e3c601583610df5565b9150610e4782610e06565b602082019050919050565b60006020820190508181036000830152610e6b81610e2f565b9050919050565b7f416d6f756e74206d7573742062652067726561746572207468616e207a65726f600082015250565b6000610ea8602083610df5565b9150610eb382610e72565b602082019050919050565b60006020820190508181036000830152610ed781610e9b565b9050919050565b7f4e487b7100000000000000000000000000000000000000000000000000000000600052601160045260246000fd5b6000610f1882610c08565b9150610f2383610c08565b9250817fffffffffffffffffffffffffffffffffffffffffffffffffffffffffffffffff0483118215151615610f5c57610f5b610ede565b5b828202905092915050565b7f496e636f727265637420616d6f756e742073656e740000000000000000000000600082015250565b6000610f9d601583610df5565b9150610fa882610f67565b602082019050919050565b60006020820190508181036000830152610fcc81610f90565b9050919050565b6000610fde82610c08565b9150610fe983610c08565b9250827fffffffffffffffffffffffffffffffffffffffffffffffffffffffffffffffff0382111561101e5761101d610ede565b5b828201905092915050565b600061103482610d64565b61103e8185610df5565b935061104e818560208601610d7a565b61105781610a12565b840191505092915050565b60006060820190506110776000830186610d0d565b81810360208301526110898185611029565b90506110986040830184610c12565b949350505050565b7f496e73756666696369656e742062616c616e6365000000000000000000000000600082015250565b60006110d6601483610df5565b91506110e1826110a0565b602082019050919050565b60006020820190508181036000830152611105816110c9565b9050919050565b600061111782610c08565b915061112283610c08565b92508282101561113557611134610ede565b5b828203905092915050565b7f436f6e76657273696f6e2072617465206d75737420626520677265617465722060008201527f7468616e207a65726f0000000000000000000000000000000000000000000000602082015250565b600061119c602983610df5565b91506111a782611140565b604082019050919050565b600060208201905081810360008301526111cb8161118f565b9050919050565b7f566f7563686572206e616d652063616e6e6f7420626520656d70747900000000600082015250565b6000611208601c83610df5565b9150611213826111d2565b602082019050919050565b60006020820190508181036000830152611237816111fb565b9050919050565b600060408201905081810360008301526112588185611029565b90506112676020830184610c12565b9392505050565b7f4f776e61626c653a206e6577206f776e657220697320746865207a65726f206160008201527f6464726573730000000000000000000000000000000000000000000000000000602082015250565b60006112ca602683610df5565b91506112d58261126e565b604082019050919050565b600060208201905081810360008301526112f9816112bd565b9050919050565b7f4f776e61626c653a2063616c6c6572206973206e6f7420746865206f776e6572600082015250565b6000611336602083610df5565b915061134182611300565b602082019050919050565b6000602082019050818103600083015261136581611329565b905091905056fea2646970667358221220d97efe12ed35fe96dc0760a73526efbd7dd81ab072a763c6d446fa06261131ef64736f6c634300080f0033",
  "linkReferences": {},
  "deployedLinkReferences": {}
}